{
  "contractName": "ONEFOURFOURNFT",
  "abi": [
    {
      "inputs": [],
      "stateMutability": "nonpayable",
      "type": "constructor"
    },
    {
      "anonymous": false,
      "inputs": [
        {
          "indexed": true,
          "internalType": "address",
          "name": "owner",
          "type": "address"
        },
        {
          "indexed": true,
          "internalType": "address",
          "name": "approved",
          "type": "address"
        },
        {
          "indexed": true,
          "internalType": "uint256",
          "name": "tokenId",
          "type": "uint256"
        }
      ],
      "name": "Approval",
      "type": "event"
    },
    {
      "anonymous": false,
      "inputs": [
        {
          "indexed": true,
          "internalType": "address",
          "name": "owner",
          "type": "address"
        },
        {
          "indexed": true,
          "internalType": "address",
          "name": "operator",
          "type": "address"
        },
        {
          "indexed": false,
          "internalType": "bool",
          "name": "approved",
          "type": "bool"
        }
      ],
      "name": "ApprovalForAll",
      "type": "event"
    },
    {
      "anonymous": false,
      "inputs": [
        {
          "indexed": true,
          "internalType": "address",
          "name": "from",
          "type": "address"
        },
        {
          "indexed": true,
          "internalType": "address",
          "name": "to",
          "type": "address"
        },
        {
          "indexed": true,
          "internalType": "uint256",
          "name": "tokenId",
          "type": "uint256"
        }
      ],
      "name": "Transfer",
      "type": "event"
    },
    {
      "inputs": [
        {
          "internalType": "address",
          "name": "to",
          "type": "address"
        },
        {
          "internalType": "uint256",
          "name": "tokenId",
          "type": "uint256"
        }
      ],
      "name": "approve",
      "outputs": [],
      "stateMutability": "nonpayable",
      "type": "function"
    },
    {
      "inputs": [
        {
          "internalType": "address",
          "name": "owner",
          "type": "address"
        }
      ],
      "name": "balanceOf",
      "outputs": [
        {
          "internalType": "uint256",
          "name": "",
          "type": "uint256"
        }
      ],
      "stateMutability": "view",
      "type": "function",
      "constant": true
    },
    {
      "inputs": [
        {
          "internalType": "uint256",
          "name": "tokenId",
          "type": "uint256"
        }
      ],
      "name": "getApproved",
      "outputs": [
        {
          "internalType": "address",
          "name": "",
          "type": "address"
        }
      ],
      "stateMutability": "view",
      "type": "function",
      "constant": true
    },
    {
      "inputs": [
        {
          "internalType": "address",
          "name": "owner",
          "type": "address"
        },
        {
          "internalType": "address",
          "name": "operator",
          "type": "address"
        }
      ],
      "name": "isApprovedForAll",
      "outputs": [
        {
          "internalType": "bool",
          "name": "",
          "type": "bool"
        }
      ],
      "stateMutability": "view",
      "type": "function",
      "constant": true
    },
    {
      "inputs": [],
      "name": "name",
      "outputs": [
        {
          "internalType": "string",
          "name": "",
          "type": "string"
        }
      ],
      "stateMutability": "view",
      "type": "function",
      "constant": true
    },
    {
      "inputs": [
        {
          "internalType": "uint256",
          "name": "tokenId",
          "type": "uint256"
        }
      ],
      "name": "ownerOf",
      "outputs": [
        {
          "internalType": "address",
          "name": "",
          "type": "address"
        }
      ],
      "stateMutability": "view",
      "type": "function",
      "constant": true
    },
    {
      "inputs": [
        {
          "internalType": "address",
          "name": "from",
          "type": "address"
        },
        {
          "internalType": "address",
          "name": "to",
          "type": "address"
        },
        {
          "internalType": "uint256",
          "name": "tokenId",
          "type": "uint256"
        }
      ],
      "name": "safeTransferFrom",
      "outputs": [],
      "stateMutability": "nonpayable",
      "type": "function"
    },
    {
      "inputs": [
        {
          "internalType": "address",
          "name": "from",
          "type": "address"
        },
        {
          "internalType": "address",
          "name": "to",
          "type": "address"
        },
        {
          "internalType": "uint256",
          "name": "tokenId",
          "type": "uint256"
        },
        {
          "internalType": "bytes",
          "name": "_data",
          "type": "bytes"
        }
      ],
      "name": "safeTransferFrom",
      "outputs": [],
      "stateMutability": "nonpayable",
      "type": "function"
    },
    {
      "inputs": [
        {
          "internalType": "address",
          "name": "operator",
          "type": "address"
        },
        {
          "internalType": "bool",
          "name": "approved",
          "type": "bool"
        }
      ],
      "name": "setApprovalForAll",
      "outputs": [],
      "stateMutability": "nonpayable",
      "type": "function"
    },
    {
      "inputs": [
        {
          "internalType": "bytes4",
          "name": "interfaceId",
          "type": "bytes4"
        }
      ],
      "name": "supportsInterface",
      "outputs": [
        {
          "internalType": "bool",
          "name": "",
          "type": "bool"
        }
      ],
      "stateMutability": "view",
      "type": "function",
      "constant": true
    },
    {
      "inputs": [],
      "name": "symbol",
      "outputs": [
        {
          "internalType": "string",
          "name": "",
          "type": "string"
        }
      ],
      "stateMutability": "view",
      "type": "function",
      "constant": true
    },
    {
      "inputs": [
        {
          "internalType": "uint256",
          "name": "tokenId",
          "type": "uint256"
        }
      ],
      "name": "tokenURI",
      "outputs": [
        {
          "internalType": "string",
          "name": "",
          "type": "string"
        }
      ],
      "stateMutability": "view",
      "type": "function",
      "constant": true
    },
    {
      "inputs": [
        {
          "internalType": "address",
          "name": "from",
          "type": "address"
        },
        {
          "internalType": "address",
          "name": "to",
          "type": "address"
        },
        {
          "internalType": "uint256",
          "name": "tokenId",
          "type": "uint256"
        }
      ],
      "name": "transferFrom",
      "outputs": [],
      "stateMutability": "nonpayable",
      "type": "function"
    },
    {
      "inputs": [
        {
          "internalType": "address",
          "name": "user",
          "type": "address"
        },
        {
          "internalType": "string",
          "name": "tokenURI",
          "type": "string"
        },
        {
          "internalType": "uint256",
          "name": "tokenID",
          "type": "uint256"
        }
      ],
      "name": "mint144NFT",
      "outputs": [
        {
          "internalType": "bool",
          "name": "",
          "type": "bool"
        }
      ],
      "stateMutability": "nonpayable",
      "type": "function"
    }
  ],
  "bytecode": "0x60806040526040518060400160405280600681526020017f3134344e46540000000000000000000000000000000000000000000000000000815250600790805190602001906200005192919062000218565b506040518060400160405280600381526020017f3134340000000000000000000000000000000000000000000000000000000000815250600890805190602001906200009f92919062000218565b5060906009556000600a55348015620000b757600080fd5b5060078054620000c790620002f7565b80601f0160208091040260200160405190810160405280929190818152602001828054620000f590620002f7565b8015620001465780601f106200011a5761010080835404028352916020019162000146565b820191906000526020600020905b8154815290600101906020018083116200012857829003601f168201915b5050505050600880546200015a90620002f7565b80601f01602080910402602001604051908101604052809291908181526020018280546200018890620002f7565b8015620001d95780601f10620001ad57610100808354040283529160200191620001d9565b820191906000526020600020905b815481529060010190602001808311620001bb57829003601f168201915b50505050508160009080519060200190620001f692919062000218565b5080600190805190602001906200020f92919062000218565b5050506200032d565b8280546200022690620002f7565b90600052602060002090601f0160209004810192826200024a576000855562000296565b82601f106200026557805160ff191683800117855562000296565b8280016001018555821562000296579182015b828111156200029557825182559160200191906001019062000278565b5b509050620002a59190620002a9565b5090565b5b80821115620002c4576000816000905550600101620002aa565b5090565b7f4e487b7100000000000000000000000000000000000000000000000000000000600052602260045260246000fd5b600060028204905060018216806200031057607f821691505b60208210811415620003275762000326620002c8565b5b50919050565b612d53806200033d6000396000f3fe608060405234801561001057600080fd5b50600436106100ea5760003560e01c806370a082311161008c578063b88d4fde11610066578063b88d4fde1461025b578063c87b56dd14610277578063e985e9c5146102a7578063ea0104ae146102d7576100ea565b806370a08231146101f157806395d89b4114610221578063a22cb4651461023f576100ea565b8063095ea7b3116100c8578063095ea7b31461016d57806323b872dd1461018957806342842e0e146101a55780636352211e146101c1576100ea565b806301ffc9a7146100ef57806306fdde031461011f578063081812fc1461013d575b600080fd5b610109600480360381019061010491906119ca565b610307565b6040516101169190611a12565b60405180910390f35b6101276103e9565b6040516101349190611ac6565b60405180910390f35b61015760048036038101906101529190611b1e565b61047b565b6040516101649190611b8c565b60405180910390f35b61018760048036038101906101829190611bd3565b610500565b005b6101a3600480360381019061019e9190611c13565b610618565b005b6101bf60048036038101906101ba9190611c13565b610678565b005b6101db60048036038101906101d69190611b1e565b610698565b6040516101e89190611b8c565b60405180910390f35b61020b60048036038101906102069190611c66565b61074a565b6040516102189190611ca2565b60405180910390f35b610229610802565b6040516102369190611ac6565b60405180910390f35b61025960048036038101906102549190611ce9565b610894565b005b61027560048036038101906102709190611e5e565b610a15565b005b610291600480360381019061028c9190611b1e565b610a77565b60405161029e9190611ac6565b60405180910390f35b6102c160048036038101906102bc9190611ee1565b610bc9565b6040516102ce9190611a12565b60405180910390f35b6102f160048036038101906102ec9190611fc2565b610c5d565b6040516102fe9190611a12565b60405180910390f35b60007f80ac58cd000000000000000000000000000000000000000000000000000000007bffffffffffffffffffffffffffffffffffffffffffffffffffffffff1916827bffffffffffffffffffffffffffffffffffffffffffffffffffffffff191614806103d257507f5b5e139f000000000000000000000000000000000000000000000000000000007bffffffffffffffffffffffffffffffffffffffffffffffffffffffff1916827bffffffffffffffffffffffffffffffffffffffffffffffffffffffff1916145b806103e257506103e182610d68565b5b9050919050565b6060600080546103f890612060565b80601f016020809104026020016040519081016040528092919081815260200182805461042490612060565b80156104715780601f1061044657610100808354040283529160200191610471565b820191906000526020600020905b81548152906001019060200180831161045457829003601f168201915b5050505050905090565b600061048682610dd2565b6104c5576040517f08c379a00000000000000000000000000000000000000000000000000000000081526004016104bc90612104565b60405180910390fd5b6004600083815260200190815260200160002060009054906101000a900473ffffffffffffffffffffffffffffffffffffffff169050919050565b600061050b82610698565b90508073ffffffffffffffffffffffffffffffffffffffff168373ffffffffffffffffffffffffffffffffffffffff16141561057c576040517f08c379a000000000000000000000000000000000000000000000000000000000815260040161057390612196565b60405180910390fd5b8073ffffffffffffffffffffffffffffffffffffffff1661059b610e3e565b73ffffffffffffffffffffffffffffffffffffffff1614806105ca57506105c9816105c4610e3e565b610bc9565b5b610609576040517f08c379a000000000000000000000000000000000000000000000000000000000815260040161060090612228565b60405180910390fd5b6106138383610e46565b505050565b610629610623610e3e565b82610eff565b610668576040517f08c379a000000000000000000000000000000000000000000000000000000000815260040161065f906122ba565b60405180910390fd5b610673838383610fdd565b505050565b61069383838360405180602001604052806000815250610a15565b505050565b6000806002600084815260200190815260200160002060009054906101000a900473ffffffffffffffffffffffffffffffffffffffff169050600073ffffffffffffffffffffffffffffffffffffffff168173ffffffffffffffffffffffffffffffffffffffff161415610741576040517f08c379a00000000000000000000000000000000000000000000000000000000081526004016107389061234c565b60405180910390fd5b80915050919050565b60008073ffffffffffffffffffffffffffffffffffffffff168273ffffffffffffffffffffffffffffffffffffffff1614156107bb576040517f08c379a00000000000000000000000000000000000000000000000000000000081526004016107b2906123de565b60405180910390fd5b600360008373ffffffffffffffffffffffffffffffffffffffff1673ffffffffffffffffffffffffffffffffffffffff168152602001908152602001600020549050919050565b60606001805461081190612060565b80601f016020809104026020016040519081016040528092919081815260200182805461083d90612060565b801561088a5780601f1061085f5761010080835404028352916020019161088a565b820191906000526020600020905b81548152906001019060200180831161086d57829003601f168201915b5050505050905090565b61089c610e3e565b73ffffffffffffffffffffffffffffffffffffffff168273ffffffffffffffffffffffffffffffffffffffff16141561090a576040517f08c379a00000000000000000000000000000000000000000000000000000000081526004016109019061244a565b60405180910390fd5b8060056000610917610e3e565b73ffffffffffffffffffffffffffffffffffffffff1673ffffffffffffffffffffffffffffffffffffffff16815260200190815260200160002060008473ffffffffffffffffffffffffffffffffffffffff1673ffffffffffffffffffffffffffffffffffffffff16815260200190815260200160002060006101000a81548160ff0219169083151502179055508173ffffffffffffffffffffffffffffffffffffffff166109c4610e3e565b73ffffffffffffffffffffffffffffffffffffffff167f17307eab39ab6107e8899845ad3d59bd9653f200f220920489ca2b5937696c3183604051610a099190611a12565b60405180910390a35050565b610a26610a20610e3e565b83610eff565b610a65576040517f08c379a0000000000000000000000000000000000000000000000000000000008152600401610a5c906122ba565b60405180910390fd5b610a7184848484611239565b50505050565b6060610a8282610dd2565b610ac1576040517f08c379a0000000000000000000000000000000000000000000000000000000008152600401610ab8906124dc565b60405180910390fd5b6000600660008481526020019081526020016000208054610ae190612060565b80601f0160208091040260200160405190810160405280929190818152602001828054610b0d90612060565b8015610b5a5780601f10610b2f57610100808354040283529160200191610b5a565b820191906000526020600020905b815481529060010190602001808311610b3d57829003601f168201915b505050505090506000610b6b611295565b9050600081511415610b81578192505050610bc4565b600082511115610bb6578082604051602001610b9e929190612538565b60405160208183030381529060405292505050610bc4565b610bbf846112ac565b925050505b919050565b6000600560008473ffffffffffffffffffffffffffffffffffffffff1673ffffffffffffffffffffffffffffffffffffffff16815260200190815260200160002060008373ffffffffffffffffffffffffffffffffffffffff1673ffffffffffffffffffffffffffffffffffffffff16815260200190815260200160002060009054906101000a900460ff16905092915050565b6000600954600a5410610ca5576040517f08c379a0000000000000000000000000000000000000000000000000000000008152600401610c9c906125a8565b60405180910390fd5b6000821015610ce9576040517f08c379a0000000000000000000000000000000000000000000000000000000008152600401610ce090612614565b60405180910390fd5b6090821115610d2d576040517f08c379a0000000000000000000000000000000000000000000000000000000008152600401610d2490612614565b60405180910390fd5b610d378483611353565b610d418284611521565b610d576001600a5461159590919063ffffffff16565b600a81905550600190509392505050565b60007f01ffc9a7000000000000000000000000000000000000000000000000000000007bffffffffffffffffffffffffffffffffffffffffffffffffffffffff1916827bffffffffffffffffffffffffffffffffffffffffffffffffffffffff1916149050919050565b60008073ffffffffffffffffffffffffffffffffffffffff166002600084815260200190815260200160002060009054906101000a900473ffffffffffffffffffffffffffffffffffffffff1673ffffffffffffffffffffffffffffffffffffffff1614159050919050565b600033905090565b816004600083815260200190815260200160002060006101000a81548173ffffffffffffffffffffffffffffffffffffffff021916908373ffffffffffffffffffffffffffffffffffffffff160217905550808273ffffffffffffffffffffffffffffffffffffffff16610eb983610698565b73ffffffffffffffffffffffffffffffffffffffff167f8c5be1e5ebec7d5bd14f71427d1e84f3dd0314c0f7b2291e5b200ac8c7c3b92560405160405180910390a45050565b6000610f0a82610dd2565b610f49576040517f08c379a0000000000000000000000000000000000000000000000000000000008152600401610f40906126a6565b60405180910390fd5b6000610f5483610698565b90508073ffffffffffffffffffffffffffffffffffffffff168473ffffffffffffffffffffffffffffffffffffffff161480610fc357508373ffffffffffffffffffffffffffffffffffffffff16610fab8461047b565b73ffffffffffffffffffffffffffffffffffffffff16145b80610fd45750610fd38185610bc9565b5b91505092915050565b8273ffffffffffffffffffffffffffffffffffffffff16610ffd82610698565b73ffffffffffffffffffffffffffffffffffffffff1614611053576040517f08c379a000000000000000000000000000000000000000000000000000000000815260040161104a90612738565b60405180910390fd5b600073ffffffffffffffffffffffffffffffffffffffff168273ffffffffffffffffffffffffffffffffffffffff1614156110c3576040517f08c379a00000000000000000000000000000000000000000000000000000000081526004016110ba906127ca565b60405180910390fd5b6110ce8383836115ab565b6110d9600082610e46565b6001600360008573ffffffffffffffffffffffffffffffffffffffff1673ffffffffffffffffffffffffffffffffffffffff16815260200190815260200160002060008282546111299190612819565b925050819055506001600360008473ffffffffffffffffffffffffffffffffffffffff1673ffffffffffffffffffffffffffffffffffffffff1681526020019081526020016000206000828254611180919061284d565b92505081905550816002600083815260200190815260200160002060006101000a81548173ffffffffffffffffffffffffffffffffffffffff021916908373ffffffffffffffffffffffffffffffffffffffff160217905550808273ffffffffffffffffffffffffffffffffffffffff168473ffffffffffffffffffffffffffffffffffffffff167fddf252ad1be2c89b69c2b068fc378daa952ba7f163c4a11628f55a4df523b3ef60405160405180910390a4505050565b611244848484610fdd565b611250848484846115b0565b61128f576040517f08c379a000000000000000000000000000000000000000000000000000000000815260040161128690612915565b60405180910390fd5b50505050565b606060405180602001604052806000815250905090565b60606112b782610dd2565b6112f6576040517f08c379a00000000000000000000000000000000000000000000000000000000081526004016112ed906129a7565b60405180910390fd5b6000611300611295565b90506000815111611320576040518060200160405280600081525061134b565b8061132a84611747565b60405160200161133b929190612538565b6040516020818303038152906040525b915050919050565b600073ffffffffffffffffffffffffffffffffffffffff168273ffffffffffffffffffffffffffffffffffffffff1614156113c3576040517f08c379a00000000000000000000000000000000000000000000000000000000081526004016113ba90612a13565b60405180910390fd5b6113cc81610dd2565b1561140c576040517f08c379a000000000000000000000000000000000000000000000000000000000815260040161140390612a7f565b60405180910390fd5b611418600083836115ab565b6001600360008473ffffffffffffffffffffffffffffffffffffffff1673ffffffffffffffffffffffffffffffffffffffff1681526020019081526020016000206000828254611468919061284d565b92505081905550816002600083815260200190815260200160002060006101000a81548173ffffffffffffffffffffffffffffffffffffffff021916908373ffffffffffffffffffffffffffffffffffffffff160217905550808273ffffffffffffffffffffffffffffffffffffffff16600073ffffffffffffffffffffffffffffffffffffffff167fddf252ad1be2c89b69c2b068fc378daa952ba7f163c4a11628f55a4df523b3ef60405160405180910390a45050565b61152a82610dd2565b611569576040517f08c379a000000000000000000000000000000000000000000000000000000000815260040161156090612b11565b60405180910390fd5b806006600084815260200190815260200160002090805190602001906115909291906118bb565b505050565b600081836115a3919061284d565b905092915050565b505050565b60006115d18473ffffffffffffffffffffffffffffffffffffffff166118a8565b1561173a578373ffffffffffffffffffffffffffffffffffffffff1663150b7a026115fa610e3e565b8786866040518563ffffffff1660e01b815260040161161c9493929190612b86565b602060405180830381600087803b15801561163657600080fd5b505af192505050801561166757506040513d601f19601f820116820180604052508101906116649190612be7565b60015b6116ea573d8060008114611697576040519150601f19603f3d011682016040523d82523d6000602084013e61169c565b606091505b506000815114156116e2576040517f08c379a00000000000000000000000000000000000000000000000000000000081526004016116d990612915565b60405180910390fd5b805181602001fd5b63150b7a0260e01b7bffffffffffffffffffffffffffffffffffffffffffffffffffffffff1916817bffffffffffffffffffffffffffffffffffffffffffffffffffffffff19161491505061173f565b600190505b949350505050565b6060600082141561178f576040518060400160405280600181526020017f300000000000000000000000000000000000000000000000000000000000000081525090506118a3565b600082905060005b600082146117c15780806117aa90612c14565b915050600a826117ba9190612c8c565b9150611797565b60008167ffffffffffffffff8111156117dd576117dc611d33565b5b6040519080825280601f01601f19166020018201604052801561180f5781602001600182028036833780820191505090505b5090505b6000851461189c576001826118289190612819565b9150600a856118379190612cbd565b6030611843919061284d565b60f81b81838151811061185957611858612cee565b5b60200101907effffffffffffffffffffffffffffffffffffffffffffffffffffffffffffff1916908160001a905350600a856118959190612c8c565b9450611813565b8093505050505b919050565b600080823b905060008111915050919050565b8280546118c790612060565b90600052602060002090601f0160209004810192826118e95760008555611930565b82601f1061190257805160ff1916838001178555611930565b82800160010185558215611930579182015b8281111561192f578251825591602001919060010190611914565b5b50905061193d9190611941565b5090565b5b8082111561195a576000816000905550600101611942565b5090565b6000604051905090565b600080fd5b600080fd5b60007fffffffff0000000000000000000000000000000000000000000000000000000082169050919050565b6119a781611972565b81146119b257600080fd5b50565b6000813590506119c48161199e565b92915050565b6000602082840312156119e0576119df611968565b5b60006119ee848285016119b5565b91505092915050565b60008115159050919050565b611a0c816119f7565b82525050565b6000602082019050611a276000830184611a03565b92915050565b600081519050919050565b600082825260208201905092915050565b60005b83811015611a67578082015181840152602081019050611a4c565b83811115611a76576000848401525b50505050565b6000601f19601f8301169050919050565b6000611a9882611a2d565b611aa28185611a38565b9350611ab2818560208601611a49565b611abb81611a7c565b840191505092915050565b60006020820190508181036000830152611ae08184611a8d565b905092915050565b6000819050919050565b611afb81611ae8565b8114611b0657600080fd5b50565b600081359050611b1881611af2565b92915050565b600060208284031215611b3457611b33611968565b5b6000611b4284828501611b09565b91505092915050565b600073ffffffffffffffffffffffffffffffffffffffff82169050919050565b6000611b7682611b4b565b9050919050565b611b8681611b6b565b82525050565b6000602082019050611ba16000830184611b7d565b92915050565b611bb081611b6b565b8114611bbb57600080fd5b50565b600081359050611bcd81611ba7565b92915050565b60008060408385031215611bea57611be9611968565b5b6000611bf885828601611bbe565b9250506020611c0985828601611b09565b9150509250929050565b600080600060608486031215611c2c57611c2b611968565b5b6000611c3a86828701611bbe565b9350506020611c4b86828701611bbe565b9250506040611c5c86828701611b09565b9150509250925092565b600060208284031215611c7c57611c7b611968565b5b6000611c8a84828501611bbe565b91505092915050565b611c9c81611ae8565b82525050565b6000602082019050611cb76000830184611c93565b92915050565b611cc6816119f7565b8114611cd157600080fd5b50565b600081359050611ce381611cbd565b92915050565b60008060408385031215611d0057611cff611968565b5b6000611d0e85828601611bbe565b9250506020611d1f85828601611cd4565b9150509250929050565b600080fd5b600080fd5b7f4e487b7100000000000000000000000000000000000000000000000000000000600052604160045260246000fd5b611d6b82611a7c565b810181811067ffffffffffffffff82111715611d8a57611d89611d33565b5b80604052505050565b6000611d9d61195e565b9050611da98282611d62565b919050565b600067ffffffffffffffff821115611dc957611dc8611d33565b5b611dd282611a7c565b9050602081019050919050565b82818337600083830152505050565b6000611e01611dfc84611dae565b611d93565b905082815260208101848484011115611e1d57611e1c611d2e565b5b611e28848285611ddf565b509392505050565b600082601f830112611e4557611e44611d29565b5b8135611e55848260208601611dee565b91505092915050565b60008060008060808587031215611e7857611e77611968565b5b6000611e8687828801611bbe565b9450506020611e9787828801611bbe565b9350506040611ea887828801611b09565b925050606085013567ffffffffffffffff811115611ec957611ec861196d565b5b611ed587828801611e30565b91505092959194509250565b60008060408385031215611ef857611ef7611968565b5b6000611f0685828601611bbe565b9250506020611f1785828601611bbe565b9150509250929050565b600067ffffffffffffffff821115611f3c57611f3b611d33565b5b611f4582611a7c565b9050602081019050919050565b6000611f65611f6084611f21565b611d93565b905082815260208101848484011115611f8157611f80611d2e565b5b611f8c848285611ddf565b509392505050565b600082601f830112611fa957611fa8611d29565b5b8135611fb9848260208601611f52565b91505092915050565b600080600060608486031215611fdb57611fda611968565b5b6000611fe986828701611bbe565b935050602084013567ffffffffffffffff81111561200a5761200961196d565b5b61201686828701611f94565b925050604061202786828701611b09565b9150509250925092565b7f4e487b7100000000000000000000000000000000000000000000000000000000600052602260045260246000fd5b6000600282049050600182168061207857607f821691505b6020821081141561208c5761208b612031565b5b50919050565b7f4552433732313a20617070726f76656420717565727920666f72206e6f6e657860008201527f697374656e7420746f6b656e0000000000000000000000000000000000000000602082015250565b60006120ee602c83611a38565b91506120f982612092565b604082019050919050565b6000602082019050818103600083015261211d816120e1565b9050919050565b7f4552433732313a20617070726f76616c20746f2063757272656e74206f776e6560008201527f7200000000000000000000000000000000000000000000000000000000000000602082015250565b6000612180602183611a38565b915061218b82612124565b604082019050919050565b600060208201905081810360008301526121af81612173565b9050919050565b7f4552433732313a20617070726f76652063616c6c6572206973206e6f74206f7760008201527f6e6572206e6f7220617070726f76656420666f7220616c6c0000000000000000602082015250565b6000612212603883611a38565b915061221d826121b6565b604082019050919050565b6000602082019050818103600083015261224181612205565b9050919050565b7f4552433732313a207472616e736665722063616c6c6572206973206e6f74206f60008201527f776e6572206e6f7220617070726f766564000000000000000000000000000000602082015250565b60006122a4603183611a38565b91506122af82612248565b604082019050919050565b600060208201905081810360008301526122d381612297565b9050919050565b7f4552433732313a206f776e657220717565727920666f72206e6f6e657869737460008201527f656e7420746f6b656e0000000000000000000000000000000000000000000000602082015250565b6000612336602983611a38565b9150612341826122da565b604082019050919050565b6000602082019050818103600083015261236581612329565b9050919050565b7f4552433732313a2062616c616e636520717565727920666f7220746865207a6560008201527f726f206164647265737300000000000000000000000000000000000000000000602082015250565b60006123c8602a83611a38565b91506123d38261236c565b604082019050919050565b600060208201905081810360008301526123f7816123bb565b9050919050565b7f4552433732313a20617070726f766520746f2063616c6c657200000000000000600082015250565b6000612434601983611a38565b915061243f826123fe565b602082019050919050565b6000602082019050818103600083015261246381612427565b9050919050565b7f45524337323155524953746f726167653a2055524920717565727920666f722060008201527f6e6f6e6578697374656e7420746f6b656e000000000000000000000000000000602082015250565b60006124c6603183611a38565b91506124d18261246a565b604082019050919050565b600060208201905081810360008301526124f5816124b9565b9050919050565b600081905092915050565b600061251282611a2d565b61251c81856124fc565b935061252c818560208601611a49565b80840191505092915050565b60006125448285612507565b91506125508284612507565b91508190509392505050565b7f416c6c20746f6b656e73206d696e746564000000000000000000000000000000600082015250565b6000612592601183611a38565b915061259d8261255c565b602082019050919050565b600060208201905081810360008301526125c181612585565b9050919050565b7f4d75737420686176652076616c696420746f6b656e2049440000000000000000600082015250565b60006125fe601883611a38565b9150612609826125c8565b602082019050919050565b6000602082019050818103600083015261262d816125f1565b9050919050565b7f4552433732313a206f70657261746f7220717565727920666f72206e6f6e657860008201527f697374656e7420746f6b656e0000000000000000000000000000000000000000602082015250565b6000612690602c83611a38565b915061269b82612634565b604082019050919050565b600060208201905081810360008301526126bf81612683565b9050919050565b7f4552433732313a207472616e73666572206f6620746f6b656e2074686174206960008201527f73206e6f74206f776e0000000000000000000000000000000000000000000000602082015250565b6000612722602983611a38565b915061272d826126c6565b604082019050919050565b6000602082019050818103600083015261275181612715565b9050919050565b7f4552433732313a207472616e7366657220746f20746865207a65726f2061646460008201527f7265737300000000000000000000000000000000000000000000000000000000602082015250565b60006127b4602483611a38565b91506127bf82612758565b604082019050919050565b600060208201905081810360008301526127e3816127a7565b9050919050565b7f4e487b7100000000000000000000000000000000000000000000000000000000600052601160045260246000fd5b600061282482611ae8565b915061282f83611ae8565b925082821015612842576128416127ea565b5b828203905092915050565b600061285882611ae8565b915061286383611ae8565b9250827fffffffffffffffffffffffffffffffffffffffffffffffffffffffffffffffff03821115612898576128976127ea565b5b828201905092915050565b7f4552433732313a207472616e7366657220746f206e6f6e20455243373231526560008201527f63656976657220696d706c656d656e7465720000000000000000000000000000602082015250565b60006128ff603283611a38565b915061290a826128a3565b604082019050919050565b6000602082019050818103600083015261292e816128f2565b9050919050565b7f4552433732314d657461646174613a2055524920717565727920666f72206e6f60008201527f6e6578697374656e7420746f6b656e0000000000000000000000000000000000602082015250565b6000612991602f83611a38565b915061299c82612935565b604082019050919050565b600060208201905081810360008301526129c081612984565b9050919050565b7f4552433732313a206d696e7420746f20746865207a65726f2061646472657373600082015250565b60006129fd602083611a38565b9150612a08826129c7565b602082019050919050565b60006020820190508181036000830152612a2c816129f0565b9050919050565b7f4552433732313a20746f6b656e20616c7265616479206d696e74656400000000600082015250565b6000612a69601c83611a38565b9150612a7482612a33565b602082019050919050565b60006020820190508181036000830152612a9881612a5c565b9050919050565b7f45524337323155524953746f726167653a2055524920736574206f66206e6f6e60008201527f6578697374656e7420746f6b656e000000000000000000000000000000000000602082015250565b6000612afb602e83611a38565b9150612b0682612a9f565b604082019050919050565b60006020820190508181036000830152612b2a81612aee565b9050919050565b600081519050919050565b600082825260208201905092915050565b6000612b5882612b31565b612b628185612b3c565b9350612b72818560208601611a49565b612b7b81611a7c565b840191505092915050565b6000608082019050612b9b6000830187611b7d565b612ba86020830186611b7d565b612bb56040830185611c93565b8181036060830152612bc78184612b4d565b905095945050505050565b600081519050612be18161199e565b92915050565b600060208284031215612bfd57612bfc611968565b5b6000612c0b84828501612bd2565b91505092915050565b6000612c1f82611ae8565b91507fffffffffffffffffffffffffffffffffffffffffffffffffffffffffffffffff821415612c5257612c516127ea565b5b600182019050919050565b7f4e487b7100000000000000000000000000000000000000000000000000000000600052601260045260246000fd5b6000612c9782611ae8565b9150612ca283611ae8565b925082612cb257612cb1612c5d565b5b828204905092915050565b6000612cc882611ae8565b9150612cd383611ae8565b925082612ce357612ce2612c5d565b5b828206905092915050565b7f4e487b7100000000000000000000000000000000000000000000000000000000600052603260045260246000fdfea2646970667358221220b707dcd3fae707d5997550077ba1f837381078ad110ab2be1b3a5761bb4ab6a964736f6c63430008090033",
  "immutableReferences": {},
  "source": "pragma solidity ^0.8.0;\n\nimport \"../client/node_modules/@openzeppelin/contracts/token/ERC721/extensions/ERC721URIStorage.sol\";\nimport \"../client/node_modules/@openzeppelin/contracts/utils/math/SafeMath.sol\";\n\ncontract ONEFOURFOURNFT is ERC721URIStorage {\n    \n    using SafeMath for uint256;\n    string _name = \"144NFT\";\n    string _symbol = \"144\";\n\n    constructor() ERC721(_name, _symbol) public {}\n    \n    uint private _cap = 144;\n    uint private _count = 0;\n\n    function mint144NFT(address user, string memory tokenURI, uint tokenID) public returns (bool) {\n        require(_count < _cap, \"All tokens minted\");\n        require(tokenID >= 0, \"Must have valid token ID\");\n        require(tokenID <= 144, \"Must have valid token ID\");\n        _mint(user, tokenID);\n        _setTokenURI(tokenID, tokenURI);\n        _count = _count.add(1);\n        return true;\n    }\n}",
  "sourcePath": "C:\\Users\\micha\\Documents\\GitHub\\144NFT\\contracts\\ONEFOURFOURNFT.sol",
  "compiler": {
    "name": "solc",
    "version": "0.8.9+commit.e5eed63a.Emscripten.clang"
  },
  "schemaVersion": "3.4.3",
  "updatedAt": "2021-10-27T14:54:27.606Z",
  "networkType": "ethereum",
  "devdoc": {
    "kind": "dev",
    "methods": {
      "approve(address,uint256)": {
        "details": "See {IERC721-approve}."
      },
      "balanceOf(address)": {
        "details": "See {IERC721-balanceOf}."
      },
      "getApproved(uint256)": {
        "details": "See {IERC721-getApproved}."
      },
      "isApprovedForAll(address,address)": {
        "details": "See {IERC721-isApprovedForAll}."
      },
      "name()": {
        "details": "See {IERC721Metadata-name}."
      },
      "ownerOf(uint256)": {
        "details": "See {IERC721-ownerOf}."
      },
      "safeTransferFrom(address,address,uint256)": {
        "details": "See {IERC721-safeTransferFrom}."
      },
      "safeTransferFrom(address,address,uint256,bytes)": {
        "details": "See {IERC721-safeTransferFrom}."
      },
      "setApprovalForAll(address,bool)": {
        "details": "See {IERC721-setApprovalForAll}."
      },
      "supportsInterface(bytes4)": {
        "details": "See {IERC165-supportsInterface}."
      },
      "symbol()": {
        "details": "See {IERC721Metadata-symbol}."
      },
      "tokenURI(uint256)": {
        "details": "See {IERC721Metadata-tokenURI}."
      },
      "transferFrom(address,address,uint256)": {
        "details": "See {IERC721-transferFrom}."
      }
    },
    "version": 1
  },
  "userdoc": {
    "kind": "user",
    "methods": {},
    "version": 1
  }
}