{
  "contractName": "Utility144NFT",
  "abi": [
    {
      "inputs": [
        {
          "internalType": "contract ONEFOURFOURNFT",
          "name": "_onefourfour",
          "type": "address"
        }
      ],
      "stateMutability": "nonpayable",
      "type": "constructor"
    },
    {
      "anonymous": false,
      "inputs": [
        {
          "indexed": false,
          "internalType": "address",
          "name": "sender",
          "type": "address"
        }
      ],
      "name": "BuyGrid",
      "type": "event"
    },
    {
      "anonymous": false,
      "inputs": [
        {
          "indexed": true,
          "internalType": "address",
          "name": "previousOwner",
          "type": "address"
        },
        {
          "indexed": true,
          "internalType": "address",
          "name": "newOwner",
          "type": "address"
        }
      ],
      "name": "OwnershipTransferred",
      "type": "event"
    },
    {
      "anonymous": false,
      "inputs": [
        {
          "indexed": false,
          "internalType": "address",
          "name": "owner",
          "type": "address"
        },
        {
          "indexed": false,
          "internalType": "uint256",
          "name": "balance",
          "type": "uint256"
        }
      ],
      "name": "WithdrawFunds",
      "type": "event"
    },
    {
      "inputs": [
        {
          "internalType": "uint256",
          "name": "",
          "type": "uint256"
        }
      ],
      "name": "gridToURI",
      "outputs": [
        {
          "internalType": "string",
          "name": "",
          "type": "string"
        }
      ],
      "stateMutability": "view",
      "type": "function",
      "constant": true
    },
    {
      "inputs": [],
      "name": "onefourfour",
      "outputs": [
        {
          "internalType": "contract ONEFOURFOURNFT",
          "name": "",
          "type": "address"
        }
      ],
      "stateMutability": "view",
      "type": "function",
      "constant": true
    },
    {
      "inputs": [],
      "name": "owner",
      "outputs": [
        {
          "internalType": "address",
          "name": "",
          "type": "address"
        }
      ],
      "stateMutability": "view",
      "type": "function",
      "constant": true
    },
    {
      "inputs": [],
      "name": "renounceOwnership",
      "outputs": [],
      "stateMutability": "nonpayable",
      "type": "function"
    },
    {
      "inputs": [
        {
          "internalType": "address",
          "name": "newOwner",
          "type": "address"
        }
      ],
      "name": "transferOwnership",
      "outputs": [],
      "stateMutability": "nonpayable",
      "type": "function"
    },
    {
      "inputs": [
        {
          "internalType": "address",
          "name": "_sender",
          "type": "address"
        },
        {
          "internalType": "string",
          "name": "_ipfsHash",
          "type": "string"
        },
        {
          "internalType": "uint256",
          "name": "_gridId",
          "type": "uint256"
        }
      ],
      "name": "buyGrid",
      "outputs": [
        {
          "internalType": "bool",
          "name": "",
          "type": "bool"
        }
      ],
      "stateMutability": "payable",
      "type": "function",
      "payable": true
    },
    {
      "inputs": [
        {
          "internalType": "uint256",
          "name": "_gridId",
          "type": "uint256"
        }
      ],
      "name": "getUri",
      "outputs": [
        {
          "internalType": "string",
          "name": "",
          "type": "string"
        }
      ],
      "stateMutability": "view",
      "type": "function",
      "constant": true
    },
    {
      "inputs": [],
      "name": "withdrawFunds",
      "outputs": [
        {
          "internalType": "bool",
          "name": "",
          "type": "bool"
        }
      ],
      "stateMutability": "nonpayable",
      "type": "function"
    },
    {
      "inputs": [],
      "name": "getBalance",
      "outputs": [
        {
          "internalType": "uint256",
          "name": "",
          "type": "uint256"
        }
      ],
      "stateMutability": "view",
      "type": "function",
      "constant": true
    }
  ],
  "bytecode": "0x60806040523480156200001157600080fd5b506040516200131b3803806200131b83398181016040528101906200003791906200022a565b620000576200004b620000e060201b60201c565b620000e860201b60201c565b80600160006101000a81548173ffffffffffffffffffffffffffffffffffffffff021916908373ffffffffffffffffffffffffffffffffffffffff16021790555033600360006101000a81548173ffffffffffffffffffffffffffffffffffffffff021916908373ffffffffffffffffffffffffffffffffffffffff160217905550506200025c565b600033905090565b60008060009054906101000a900473ffffffffffffffffffffffffffffffffffffffff169050816000806101000a81548173ffffffffffffffffffffffffffffffffffffffff021916908373ffffffffffffffffffffffffffffffffffffffff1602179055508173ffffffffffffffffffffffffffffffffffffffff168173ffffffffffffffffffffffffffffffffffffffff167f8be0079c531659141344cd1fd0a4f28419497f9722a3daafe3b4186f6b6457e060405160405180910390a35050565b600080fd5b600073ffffffffffffffffffffffffffffffffffffffff82169050919050565b6000620001de82620001b1565b9050919050565b6000620001f282620001d1565b9050919050565b6200020481620001e5565b81146200021057600080fd5b50565b6000815190506200022481620001f9565b92915050565b600060208284031215620002435762000242620001ac565b5b6000620002538482850162000213565b91505092915050565b6110af806200026c6000396000f3fe6080604052600436106100865760003560e01c8063715018a611610059578063715018a61461014e5780637a96d6c4146101655780638da5cb5b14610190578063da0544aa146101bb578063f2fde38b146101f857610086565b806312065fe01461008b578063205fb547146100b657806324600fc3146100e657806368b7997614610111575b600080fd5b34801561009757600080fd5b506100a0610221565b6040516100ad919061097c565b60405180910390f35b6100d060048036038101906100cb9190610b7b565b610240565b6040516100dd9190610c05565b60405180910390f35b3480156100f257600080fd5b506100fb61037b565b6040516101089190610c05565b60405180910390f35b34801561011d57600080fd5b5061013860048036038101906101339190610c20565b6104e0565b6040516101459190610cd5565b60405180910390f35b34801561015a57600080fd5b50610163610580565b005b34801561017157600080fd5b5061017a610608565b6040516101879190610d56565b60405180910390f35b34801561019c57600080fd5b506101a561062e565b6040516101b29190610d80565b60405180910390f35b3480156101c757600080fd5b506101e260048036038101906101dd9190610c20565b610657565b6040516101ef9190610cd5565b60405180910390f35b34801561020457600080fd5b5061021f600480360381019061021a9190610d9b565b6106fc565b005b60003073ffffffffffffffffffffffffffffffffffffffff1631905090565b600066d529ae9e860000341461025557600080fd5b6000600160009054906101000a900473ffffffffffffffffffffffffffffffffffffffff1673ffffffffffffffffffffffffffffffffffffffff1663ea0104ae8686866040518463ffffffff1660e01b81526004016102b693929190610dc8565b602060405180830381600087803b1580156102d057600080fd5b505af11580156102e4573d6000803e3d6000fd5b505050506040513d601f19601f820116820180604052508101906103089190610e32565b9050801561033957836002600085815260200190815260200160002090805190602001906103379291906108c0565b505b7f786c94a1b387316f16c76abdd7013844b6a9ec1c34bb2f715c220868427dd10a856040516103689190610d80565b60405180910390a1809150509392505050565b6000600360009054906101000a900473ffffffffffffffffffffffffffffffffffffffff1673ffffffffffffffffffffffffffffffffffffffff163373ffffffffffffffffffffffffffffffffffffffff16146103d757600080fd5b60003073ffffffffffffffffffffffffffffffffffffffff1631905060008111610436576040517f08c379a000000000000000000000000000000000000000000000000000000000815260040161042d90610ed1565b60405180910390fd5b600360009054906101000a900473ffffffffffffffffffffffffffffffffffffffff1673ffffffffffffffffffffffffffffffffffffffff166108fc829081150290604051600060405180830381858888f1935050505015801561049e573d6000803e3d6000fd5b507f21901fa892c430ea8bd38b9390225ac8e67eac75ee10ffba16feefc539a288f933826040516104d0929190610ef1565b60405180910390a1600191505090565b600260205280600052604060002060009150905080546104ff90610f49565b80601f016020809104026020016040519081016040528092919081815260200182805461052b90610f49565b80156105785780601f1061054d57610100808354040283529160200191610578565b820191906000526020600020905b81548152906001019060200180831161055b57829003601f168201915b505050505081565b6105886107f4565b73ffffffffffffffffffffffffffffffffffffffff166105a661062e565b73ffffffffffffffffffffffffffffffffffffffff16146105fc576040517f08c379a00000000000000000000000000000000000000000000000000000000081526004016105f390610fc7565b60405180910390fd5b61060660006107fc565b565b600160009054906101000a900473ffffffffffffffffffffffffffffffffffffffff1681565b60008060009054906101000a900473ffffffffffffffffffffffffffffffffffffffff16905090565b606060026000838152602001908152602001600020805461067790610f49565b80601f01602080910402602001604051908101604052809291908181526020018280546106a390610f49565b80156106f05780601f106106c5576101008083540402835291602001916106f0565b820191906000526020600020905b8154815290600101906020018083116106d357829003601f168201915b50505050509050919050565b6107046107f4565b73ffffffffffffffffffffffffffffffffffffffff1661072261062e565b73ffffffffffffffffffffffffffffffffffffffff1614610778576040517f08c379a000000000000000000000000000000000000000000000000000000000815260040161076f90610fc7565b60405180910390fd5b600073ffffffffffffffffffffffffffffffffffffffff168173ffffffffffffffffffffffffffffffffffffffff1614156107e8576040517f08c379a00000000000000000000000000000000000000000000000000000000081526004016107df90611059565b60405180910390fd5b6107f1816107fc565b50565b600033905090565b60008060009054906101000a900473ffffffffffffffffffffffffffffffffffffffff169050816000806101000a81548173ffffffffffffffffffffffffffffffffffffffff021916908373ffffffffffffffffffffffffffffffffffffffff1602179055508173ffffffffffffffffffffffffffffffffffffffff168173ffffffffffffffffffffffffffffffffffffffff167f8be0079c531659141344cd1fd0a4f28419497f9722a3daafe3b4186f6b6457e060405160405180910390a35050565b8280546108cc90610f49565b90600052602060002090601f0160209004810192826108ee5760008555610935565b82601f1061090757805160ff1916838001178555610935565b82800160010185558215610935579182015b82811115610934578251825591602001919060010190610919565b5b5090506109429190610946565b5090565b5b8082111561095f576000816000905550600101610947565b5090565b6000819050919050565b61097681610963565b82525050565b6000602082019050610991600083018461096d565b92915050565b6000604051905090565b600080fd5b600080fd5b600073ffffffffffffffffffffffffffffffffffffffff82169050919050565b60006109d6826109ab565b9050919050565b6109e6816109cb565b81146109f157600080fd5b50565b600081359050610a03816109dd565b92915050565b600080fd5b600080fd5b6000601f19601f8301169050919050565b7f4e487b7100000000000000000000000000000000000000000000000000000000600052604160045260246000fd5b610a5c82610a13565b810181811067ffffffffffffffff82111715610a7b57610a7a610a24565b5b80604052505050565b6000610a8e610997565b9050610a9a8282610a53565b919050565b600067ffffffffffffffff821115610aba57610ab9610a24565b5b610ac382610a13565b9050602081019050919050565b82818337600083830152505050565b6000610af2610aed84610a9f565b610a84565b905082815260208101848484011115610b0e57610b0d610a0e565b5b610b19848285610ad0565b509392505050565b600082601f830112610b3657610b35610a09565b5b8135610b46848260208601610adf565b91505092915050565b610b5881610963565b8114610b6357600080fd5b50565b600081359050610b7581610b4f565b92915050565b600080600060608486031215610b9457610b936109a1565b5b6000610ba2868287016109f4565b935050602084013567ffffffffffffffff811115610bc357610bc26109a6565b5b610bcf86828701610b21565b9250506040610be086828701610b66565b9150509250925092565b60008115159050919050565b610bff81610bea565b82525050565b6000602082019050610c1a6000830184610bf6565b92915050565b600060208284031215610c3657610c356109a1565b5b6000610c4484828501610b66565b91505092915050565b600081519050919050565b600082825260208201905092915050565b60005b83811015610c87578082015181840152602081019050610c6c565b83811115610c96576000848401525b50505050565b6000610ca782610c4d565b610cb18185610c58565b9350610cc1818560208601610c69565b610cca81610a13565b840191505092915050565b60006020820190508181036000830152610cef8184610c9c565b905092915050565b6000819050919050565b6000610d1c610d17610d12846109ab565b610cf7565b6109ab565b9050919050565b6000610d2e82610d01565b9050919050565b6000610d4082610d23565b9050919050565b610d5081610d35565b82525050565b6000602082019050610d6b6000830184610d47565b92915050565b610d7a816109cb565b82525050565b6000602082019050610d956000830184610d71565b92915050565b600060208284031215610db157610db06109a1565b5b6000610dbf848285016109f4565b91505092915050565b6000606082019050610ddd6000830186610d71565b8181036020830152610def8185610c9c565b9050610dfe604083018461096d565b949350505050565b610e0f81610bea565b8114610e1a57600080fd5b50565b600081519050610e2c81610e06565b92915050565b600060208284031215610e4857610e476109a1565b5b6000610e5684828501610e1d565b91505092915050565b7f42616c616e6365206f6620636f6e7472616374206d757374206265206772656160008201527f746572207468616e203000000000000000000000000000000000000000000000602082015250565b6000610ebb602a83610c58565b9150610ec682610e5f565b604082019050919050565b60006020820190508181036000830152610eea81610eae565b9050919050565b6000604082019050610f066000830185610d71565b610f13602083018461096d565b9392505050565b7f4e487b7100000000000000000000000000000000000000000000000000000000600052602260045260246000fd5b60006002820490506001821680610f6157607f821691505b60208210811415610f7557610f74610f1a565b5b50919050565b7f4f776e61626c653a2063616c6c6572206973206e6f7420746865206f776e6572600082015250565b6000610fb1602083610c58565b9150610fbc82610f7b565b602082019050919050565b60006020820190508181036000830152610fe081610fa4565b9050919050565b7f4f776e61626c653a206e6577206f776e657220697320746865207a65726f206160008201527f6464726573730000000000000000000000000000000000000000000000000000602082015250565b6000611043602683610c58565b915061104e82610fe7565b604082019050919050565b6000602082019050818103600083015261107281611036565b905091905056fea2646970667358221220e52664a08a96b0a00ae26f83a41e1a02b10bf4cdf9f1389860e0e4435301850f64736f6c63430008090033",
  "immutableReferences": {},
  "source": "pragma solidity ^0.8.0;\r\n\r\nimport \"./ONEFOURFOURNFT.sol\";\r\nimport \"../client/node_modules/@openzeppelin/contracts/access/Ownable.sol\";\r\n\r\ncontract Utility144NFT is Ownable{\r\n\r\n    ONEFOURFOURNFT public onefourfour;\r\n\r\n    mapping(uint => string) public gridToURI;    \r\n    event BuyGrid(address sender);\r\n    event WithdrawFunds(address owner, uint balance);\r\n\r\n    address _owner;\r\n\r\n    constructor(ONEFOURFOURNFT _onefourfour){\r\n        onefourfour = _onefourfour;\r\n        _owner = msg.sender;\r\n    }\r\n\r\n    function buyGrid(address _sender, string memory _ipfsHash, uint _gridId) public payable returns (bool) {\r\n        require(msg.value == 60000000000000000);\r\n        bool r = onefourfour.mint144NFT(_sender, _ipfsHash, _gridId);\r\n        if (r) {\r\n            gridToURI[_gridId] = _ipfsHash; \r\n         }\r\n        emit BuyGrid(_sender);\r\n        return r;\r\n    }\r\n\r\n    function getUri(uint _gridId) public view returns (string memory){\r\n        return gridToURI[_gridId];\r\n    }\r\n\r\n    function withdrawFunds() public returns(bool){\r\n        require(msg.sender == _owner);\r\n        uint balance = address(this).balance;\r\n        require(balance > 0, \"Balance of contract must be greater than 0\");\r\n        payable(_owner).transfer(balance);\r\n        emit WithdrawFunds(msg.sender, balance);\r\n        return true;\r\n    }\r\n\r\n    function getBalance() public view returns (uint){\r\n        return address(this).balance;\r\n    }\r\n}\r\n",
  "sourcePath": "C:\\Users\\micha\\Documents\\GitHub\\144NFT\\contracts\\Utility144NFT.sol",
  "compiler": {
    "name": "solc",
    "version": "0.8.9+commit.e5eed63a.Emscripten.clang"
  },
  "schemaVersion": "3.4.3",
  "updatedAt": "2021-10-20T15:59:14.707Z",
  "networkType": "ethereum",
  "devdoc": {
    "kind": "dev",
    "methods": {
      "owner()": {
        "details": "Returns the address of the current owner."
      },
      "renounceOwnership()": {
        "details": "Leaves the contract without owner. It will not be possible to call `onlyOwner` functions anymore. Can only be called by the current owner. NOTE: Renouncing ownership will leave the contract without an owner, thereby removing any functionality that is only available to the owner."
      },
      "transferOwnership(address)": {
        "details": "Transfers ownership of the contract to a new account (`newOwner`). Can only be called by the current owner."
      }
    },
    "version": 1
  },
  "userdoc": {
    "kind": "user",
    "methods": {},
    "version": 1
  }
}